:100000000C9434000C9449000C9449000C94490061
:100010000C9449000C9449000C9449000C9449003C
:100020000C9449000C9449000C9449000C9449002C
:100030000C9449000C9449000C9449000C9449001C
:100040000C9449000C9449000C9449000C9449000C
:100050000C9449000C9449000C9449000C944900FC
:100060000C9449000C94490011241FBECFEFD8E036
:10007000DEBFCDBF11E0A0E0B1E0E0E9FAE002C0F0
:1000800005900D92A235B107D9F70E94DD010C94BD
:1000900046050C940000EF92FF920F931F93CF93AD
:1000A000DF9300D000D01F92CDB7DEB77C01FE01F8
:1000B000319685E0DF011D928A95E9F7529A5A98A8
:1000C000BFEF29EF80E0B15020408040E1F700C051
:1000D00000005A9A95ED9A95F1F70000529890E039
:1000E00080E04A9B17C0883EB3E09B0769F480E03C
:1000F0000F900F900F900F900F90DF91CF911F9165
:100100000F91FF90EF900895A5E0AA95F1F70000F8
:100110000196E7CF883E934051F390E080E04A9902
:100120000AC0883EB3E09B0711F3A5E0AA95F1F75A
:1001300000000196F4CF883E9340C9F230E020E001
:100140004A9B0BC0283E93E0390789F285E08A95E7
:10015000F1F700002F5F3F4FF3CF01E010E095E093
:100160009E0F283E334019F227E030E036C0B5E05C
:10017000BA95F1F700004F5F5F4F4A9905C0483EBE
:1001800083E05807A1F7B3CF483E534009F4AFCFFF
:10019000B0EABA95F1F74A9B09C08081A801022E06
:1001A00001C0440F0A94EAF7842B808350E040E0BA
:1001B0004A9B0CC0483EA3E05A0709F498CF85E05B
:1001C0008A95F1F700004F5F5F4FF2CF483E5340F2
:1001D00009F48DCF2150310918F050E040E0CDCF27
:1001E00031969E13C1CF29818B819A81920F980FEE
:1001F0003C81930F3D8139137ACFD7012C93FB01BA
:10020000808381E075CF1092B90088E48093B800B4
:1002100084E08093BC00089584EA8093BC008091C0
:10022000BC0087FFFCCF089584E98093BC0085E380
:100230008A95F1F7000008958093BB0084E88093CD
:10024000BC008091BC0087FFFCCF0895CF93C62FE0
:10025000C860C82B0E940C018EE40E941C018C2FE8
:1002600084600E941C010E94140185E08A95F1F7C8
:1002700000000E940C018EE40E941C018C2F0E9441
:100280001C010E94140187EC90E00197F1F700C077
:100290000000CF910895CF93DF93C82FD62F807F92
:1002A0000E9426016D2F8C2F8295807FDF91CF9148
:1002B0000C9426012FEF80E792E02150804090407F
:1002C000E1F700C0000060E080E30E9426018FE1BA
:1002D0009EE40197F1F700C0000060E080E30E9417
:1002E000260187E592E00197F1F700C0000060E089
:1002F00080E30E94260187E592E00197F1F700C0B4
:10030000000060E080E20E94260187E592E001970C
:10031000F1F700C0000060E088E20E944B0160E05D
:1003200081E00E944B018FE39FE10197F1F700C04C
:10033000000060E086E00C944B0160E081E00E94E8
:100340004B018FE39FE10197F1F700C00000089592
:10035000962F882329F080EC60E0890F0C944B01E4
:1003600080E8FACFCF93DF93EC018991811103C02C
:10037000DF91CF91089561E00E944B01F6CF9093F9
:10038000C5008093C40088E08093C10086E080931C
:10039000C20008959091C00095FFFCCF8093C600E5
:1003A0000895CF93DF93EC018991811103C0DF9110
:1003B000CF9108950E94CA01F7CFCF93DF93CDB7B5
:1003C000DEB762970FB6F894DEBF0FBECDBF1A8AB4
:1003D000198A87E690E00E94BF0180E091E00E94C8
:1003E000D101259A2D980E9403010E945A018DE1A6
:1003F000E82E81E0F82E90E1D92E8E010F5F1F4F7D
:1004000028E2A22E21E0B22EBE016F5E7F4FCE0108
:1004100042960E944B00882309F444C02D9A0E9402
:100420009D0160E080E00E94A80189891F928F935E
:10043000FF92EF921F92DF921F930F930E9461022F
:10044000C8010E94D1018BE191E00E94D101C80155
:100450000E94B20160E081E00E94A8018A891F9297
:100460008F93BF92AF921F92DF921F930F930E94C0
:100470006102C8010E94D1018BE191E00E94D1018B
:10048000C8010E94B2010FB6F894DEBF0FBECDBF07
:100490009FEF27EA81E6915020408040E1F700C0BD
:1004A0000000B2CF0E949D0160E080E00E94A801A0
:1004B00087E391E00E94B20184E491E00E94D101BF
:1004C000E7CFAEE0B0E0E7E6F2E00C941D050D8961
:1004D0001E898F89988D26E02C831A83098397FFC4
:1004E00002C080E090E801979E838D83AE01455E57
:1004F0005F4F698D7A8DCE0101960E9491024D81E8
:100500005E8157FD0AC02F813885421753070CF4CE
:100510009A01020F131FF80110822E96E4E00C944A
:100520003905ABE0B0E0E7E9F2E00C940F057C019F
:100530003B018A01FC0117821682838181FFC8C1B9
:10054000CE0101965C01F7019381F30193FD859142
:1005500093FF81913F01882309F453C1853239F417
:1005600093FD859193FF81913F01853229F4B70175
:1005700090E00E948104E7CF912C212C312CFFE1E7
:10058000F31538F08B3211F190F4803209F1833297
:1005900029F137FC3CC020ED280F2A3050F536FEFB
:1005A00020C08AE0989E200D1124922E06C08D3224
:1005B00091F0803371F7689430F8F30193FD8591E1
:1005C00093FF81913F018111DACF21C0689431F806
:1005D000689432F8F2CF689433F8EFCF689434F827
:1005E000ECCFEAE02E9E200D1124222E689435F8DF
:1005F000E4CF8E3229F436FC04C1689436F8DDCF9E
:100600008C3619F4689437F8D8CF8836B1F2982F21
:100610009F7D95549330E0F08336A1F18337C1F18B
:10062000833509F063C02801F2E04F0E511CF80138
:10063000C080D180692D70E036FC02C06FEF7FEF83
:10064000C6010E946B044C01689437F882010AC00D
:100650000C5F1F4FFFE3F98388248394912C65017D
:10066000E89437F833FE2DC0522C8114910471F5B3
:10067000552009F468CFB70180E290E00E94810420
:100680005A94F6CFF801808189830E5F1F4FE4CF23
:100690002801F2E04F0E511CF801C080D180692D75
:1006A00070E036FC02C06FEF7FEFC6010E94760457
:1006B0004C018201D5CFB70180E290E00E94810415
:1006C0002A942814190409F0B0F7CECFF60137FCAC
:1006D000859137FE81916F01B70190E00E948104FE
:1006E00051105A94F1E08F1A9108BFCF843619F057
:1006F000893609F077C0F80137FE6BC060817181DF
:10070000828193810C5F1F4FF32DFF763F2E97FF61
:1007100009C090958095709561957F4F8F4F9F4F41
:10072000689437F82AE030E0A5010E94B104C82E91
:10073000CA188C2C432C36FE0CC0E89440F8C9141F
:1007400040F434FE05C032FC03C0F32DFE7E4F2E74
:10075000892C44FE95C0FE01EC0DF11D8081803393
:1007600009F087C0242D297E422E842D8870582EB2
:1007700043FC95C040FE8FC09C2C821418F42C0CB6
:10078000922C981844FE91C0B70180E390E00E943B
:10079000810442FE09C088E790E041FE02C088E57E
:1007A00090E0B7010E948104C91408F48AC0CA9479
:1007B000D12C9FEFC91AD90ACA0CDB1CF601829111
:1007C0006F01B70190E00E948104AC14BD04B1F741
:1007D0004FCF60817181072E000C880B990B0E5F43
:1007E0001F4F92CFD32CE894D4F82AE030E085371D
:1007F00039F1232D297FD22E8F3601F148F4883527
:10080000A9F0F701868197812B96E2E10C942B05E4
:10081000803749F08837A9F7D4FE02C06894D2F82F
:1008200020E130E00DC06894D4F8F6CF34FE03C068
:10083000822F8660D82E20E132E002C028E030E02E
:10084000F801D7FE0FC060817181828193810C5FB6
:100850001F4FA5010E94B104C82ECA183D2CE89470
:1008600037F867CF6081718190E080E00E5F1F4FA5
:10087000F0CF42FC02C0839478CF8394839475CFE9
:10088000842D867809F471CFF6CFB70180E290E02D
:100890000E94810483948214C0F3512C73CF522C94
:1008A0005818821408F46ECFF8CF842D867809F496
:1008B0007BCF8BE241FE80E247FC8DE2B70190E006
:1008C00071CFB70180E390E00E9481049A946CCFCD
:1008D0008FEF9FEF99CFFC010590615070400110A0
:1008E000D8F7809590958E0F9F1F0895FC01615059
:1008F000704001900110D8F7809590958E0F9F1F42
:1009000008950F931F93CF93DF93182F092FEB01B7
:100910008B8181FD09C01FEF0FEF812F902FDF9199
:10092000CF911F910F91089582FF14C02E813F81B6
:100930008C819D81281739073CF4E881F981CF012A
:1009400001969983888310838E819F8101969F836E
:100950008E83E3CFE885F985812F0995892BA1F353
:10096000DACFFA01AA27283051F1203181F1E89439
:100970006F936E7F6E5F7F4F8F4F9F4FAF4FB1E092
:100980003ED0B4E03CD0670F781F891F9A1FA11D8D
:10099000680F791F8A1F911DA11D6A0F711D811D8E
:1009A000911DA11D20D009F468943F912AE0269F53
:1009B00011243019305D3193DEF6CF010895462FB2
:1009C0004770405D4193B3E00FD0C9F7F6CF462F93
:1009D0004F70405D4A3318F0495D31FD40524193FC
:1009E00002D0A9F7EACFB4E0A695979587957795B9
:1009F0006795BA95C9F700976105710508959B0140
:100A0000AC010A2E06945795479537952795BA95C8
:100A1000C9F7620F731F841F951FA01D08952F92A1
:100A20003F924F925F926F927F928F929F92AF927E
:100A3000BF92CF92DF92EF92FF920F931F93CF93CB
:100A4000DF93CDB7DEB7CA1BDB0B0FB6F894DEBF62
:100A50000FBECDBF09942A88398848885F846E8488
:100A60007D848C849B84AA84B984C884DF80EE80D2
:100A7000FD800C811B81AA81B981CE0FD11D0FB6DB
:100A8000F894DEBF0FBECDBFED010895F894FFCFFF
:100A9000496E697469616C697A696E67204932438D
:100AA00020616E64204C43442E2E2E0A0054656D46
:100AB000703A20256420430048756D696469747933
:100AC0003A20256425250053656E736F72204572A8
:100AD000726F720053656E736F72204572726F721F
:020AE0000A000A
:00000001FF
